{"contracts/campaign.sol":{"campaign":{"abi":[{"inputs":[],"stateMutability":"nonpayable","type":"constructor"},{"anonymous":false,"inputs":[{"components":[{"internalType":"string","name":"title","type":"string"},{"internalType":"string","name":"description","type":"string"},{"internalType":"address","name":"caddress","type":"address"},{"internalType":"uint256","name":"initialAmount","type":"uint256"},{"internalType":"uint256","name":"currentAmount","type":"uint256"},{"internalType":"uint256","name":"requiredAmount","type":"uint256"},{"internalType":"enum campaign.status","name":"campaignStatus","type":"uint8"}],"indexed":false,"internalType":"struct campaign.campaignDetail","name":"campaign","type":"tuple"}],"name":"campaignCreated","type":"event"},{"inputs":[{"internalType":"string","name":"_camp","type":"string"}],"name":"checkCampaigns","outputs":[{"components":[{"internalType":"string","name":"title","type":"string"},{"internalType":"string","name":"description","type":"string"},{"internalType":"address","name":"caddress","type":"address"},{"internalType":"uint256","name":"initialAmount","type":"uint256"},{"internalType":"uint256","name":"currentAmount","type":"uint256"},{"internalType":"uint256","name":"requiredAmount","type":"uint256"},{"internalType":"enum campaign.status","name":"campaignStatus","type":"uint8"}],"internalType":"struct campaign.campaignDetail","name":"","type":"tuple"}],"stateMutability":"view","type":"function"},{"inputs":[{"internalType":"string","name":"_camp","type":"string"},{"internalType":"string","name":"_description","type":"string"},{"internalType":"uint256","name":"_initialAmount","type":"uint256"},{"internalType":"uint256","name":"_requiredAmount","type":"uint256"}],"name":"createCampaign","outputs":[],"stateMutability":"payable","type":"function"}],"evm":{"bytecode":{"linkReferences":{},"object":"608060405234801561001057600080fd5b506001600281905550611292806100286000396000f3fe6080604052600436106100295760003560e01c8063298b327c1461002e578063a318f2691461006b575b600080fd5b34801561003a57600080fd5b5061005560048036038101906100509190610861565b610087565b6040516100629190610a9d565b60405180910390f35b61008560048036038101906100809190610aeb565b610394565b005b61008f6106a2565b60005b6002548110156103535761014360008083815260200190815260200160002060000180546100bf90610bb9565b80601f01602080910402602001604051908101604052809291908181526020018280546100eb90610bb9565b80156101385780601f1061010d57610100808354040283529160200191610138565b820191906000526020600020905b81548152906001019060200180831161011b57829003601f168201915b5050505050846105d4565b15610340576000808281526020019081526020016000206040518060e001604052908160008201805461017590610bb9565b80601f01602080910402602001604051908101604052809291908181526020018280546101a190610bb9565b80156101ee5780601f106101c3576101008083540402835291602001916101ee565b820191906000526020600020905b8154815290600101906020018083116101d157829003601f168201915b5050505050815260200160018201805461020790610bb9565b80601f016020809104026020016040519081016040528092919081815260200182805461023390610bb9565b80156102805780601f1061025557610100808354040283529160200191610280565b820191906000526020600020905b81548152906001019060200180831161026357829003601f168201915b505050505081526020016002820160009054906101000a900473ffffffffffffffffffffffffffffffffffffffff1673ffffffffffffffffffffffffffffffffffffffff1673ffffffffffffffffffffffffffffffffffffffff1681526020016003820154815260200160048201548152602001600582015481526020016006820160009054906101000a900460ff16600281111561032257610321610983565b5b600281111561033457610333610983565b5b8152505091505061038f565b808061034b90610c19565b915050610092565b506040517f08c379a000000000000000000000000000000000000000000000000000000000815260040161038690610cbe565b60405180910390fd5b919050565b836001816040516103a59190610d1a565b908152602001604051809103902060009054906101000a900460ff1615610401576040517f08c379a00000000000000000000000000000000000000000000000000000000081526004016103f890610d7d565b60405180910390fd5b6040518060e001604052808681526020018581526020013373ffffffffffffffffffffffffffffffffffffffff1681526020018481526020018481526020018381526020016000600281111561045a57610459610983565b5b815250600080600254815260200190815260200160002060008201518160000190816104869190610f49565b50602082015181600101908161049c9190610f49565b5060408201518160020160006101000a81548173ffffffffffffffffffffffffffffffffffffffff021916908373ffffffffffffffffffffffffffffffffffffffff160217905550606082015181600301556080820151816004015560a0820151816005015560c08201518160060160006101000a81548160ff0219169083600281111561052d5761052c610983565b5b0217905550905050600180866040516105469190610d1a565b908152602001604051809103902060006101000a81548160ff0219169083151502179055507fc2af6a68c6fdb5f578e7d82609937628ac8b65bea2f8f08f56d410ad844e37f760008060025481526020019081526020016000206040516105ad919061120b565b60405180910390a1600260008154809291906105c890610c19565b91905055505050505050565b600081518351036106975760005b835181101561068d578281815181106105fe576105fd61122d565b5b602001015160f81c60f81b7effffffffffffffffffffffffffffffffffffffffffffffffffffffffffffff191684828151811061063e5761063d61122d565b5b602001015160f81c60f81b7effffffffffffffffffffffffffffffffffffffffffffffffffffffffffffff19161461067a57600091505061069c565b808061068590610c19565b9150506105e2565b506001905061069c565b600090505b92915050565b6040518060e001604052806060815260200160608152602001600073ffffffffffffffffffffffffffffffffffffffff1681526020016000815260200160008152602001600081526020016000600281111561070157610700610983565b5b81525090565b6000604051905090565b600080fd5b600080fd5b600080fd5b600080fd5b6000601f19601f8301169050919050565b7f4e487b7100000000000000000000000000000000000000000000000000000000600052604160045260246000fd5b61076e82610725565b810181811067ffffffffffffffff8211171561078d5761078c610736565b5b80604052505050565b60006107a0610707565b90506107ac8282610765565b919050565b600067ffffffffffffffff8211156107cc576107cb610736565b5b6107d582610725565b9050602081019050919050565b82818337600083830152505050565b60006108046107ff846107b1565b610796565b9050828152602081018484840111156108205761081f610720565b5b61082b8482856107e2565b509392505050565b600082601f8301126108485761084761071b565b5b81356108588482602086016107f1565b91505092915050565b60006020828403121561087757610876610711565b5b600082013567ffffffffffffffff81111561089557610894610716565b5b6108a184828501610833565b91505092915050565b600081519050919050565b600082825260208201905092915050565b60005b838110156108e45780820151818401526020810190506108c9565b60008484015250505050565b60006108fb826108aa565b61090581856108b5565b93506109158185602086016108c6565b61091e81610725565b840191505092915050565b600073ffffffffffffffffffffffffffffffffffffffff82169050919050565b600061095482610929565b9050919050565b61096481610949565b82525050565b6000819050919050565b61097d8161096a565b82525050565b7f4e487b7100000000000000000000000000000000000000000000000000000000600052602160045260246000fd5b600381106109c3576109c2610983565b5b50565b60008190506109d4826109b2565b919050565b60006109e4826109c6565b9050919050565b6109f4816109d9565b82525050565b600060e0830160008301518482036000860152610a1782826108f0565b91505060208301518482036020860152610a3182826108f0565b9150506040830151610a46604086018261095b565b506060830151610a596060860182610974565b506080830151610a6c6080860182610974565b5060a0830151610a7f60a0860182610974565b5060c0830151610a9260c08601826109eb565b508091505092915050565b60006020820190508181036000830152610ab781846109fa565b905092915050565b610ac88161096a565b8114610ad357600080fd5b50565b600081359050610ae581610abf565b92915050565b60008060008060808587031215610b0557610b04610711565b5b600085013567ffffffffffffffff811115610b2357610b22610716565b5b610b2f87828801610833565b945050602085013567ffffffffffffffff811115610b5057610b4f610716565b5b610b5c87828801610833565b9350506040610b6d87828801610ad6565b9250506060610b7e87828801610ad6565b91505092959194509250565b7f4e487b7100000000000000000000000000000000000000000000000000000000600052602260045260246000fd5b60006002820490506001821680610bd157607f821691505b602082108103610be457610be3610b8a565b5b50919050565b7f4e487b7100000000000000000000000000000000000000000000000000000000600052601160045260246000fd5b6000610c248261096a565b91507fffffffffffffffffffffffffffffffffffffffffffffffffffffffffffffffff8203610c5657610c55610bea565b5b600182019050919050565b600082825260208201905092915050565b7f43616d706169676e206e6f7420666f756e642100000000000000000000000000600082015250565b6000610ca8601383610c61565b9150610cb382610c72565b602082019050919050565b60006020820190508181036000830152610cd781610c9b565b9050919050565b600081905092915050565b6000610cf4826108aa565b610cfe8185610cde565b9350610d0e8185602086016108c6565b80840191505092915050565b6000610d268284610ce9565b915081905092915050565b7f43616d706169676e20616c726561647920657869737473210000000000000000600082015250565b6000610d67601883610c61565b9150610d7282610d31565b602082019050919050565b60006020820190508181036000830152610d9681610d5a565b9050919050565b60008190508160005260206000209050919050565b60006020601f8301049050919050565b600082821b905092915050565b600060088302610dff7fffffffffffffffffffffffffffffffffffffffffffffffffffffffffffffffff82610dc2565b610e098683610dc2565b95508019841693508086168417925050509392505050565b6000819050919050565b6000610e46610e41610e3c8461096a565b610e21565b61096a565b9050919050565b6000819050919050565b610e6083610e2b565b610e74610e6c82610e4d565b848454610dcf565b825550505050565b600090565b610e89610e7c565b610e94818484610e57565b505050565b5b81811015610eb857610ead600082610e81565b600181019050610e9a565b5050565b601f821115610efd57610ece81610d9d565b610ed784610db2565b81016020851015610ee6578190505b610efa610ef285610db2565b830182610e99565b50505b505050565b600082821c905092915050565b6000610f2060001984600802610f02565b1980831691505092915050565b6000610f398383610f0f565b9150826002028217905092915050565b610f52826108aa565b67ffffffffffffffff811115610f6b57610f6a610736565b5b610f758254610bb9565b610f80828285610ebc565b600060209050601f831160018114610fb35760008415610fa1578287015190505b610fab8582610f2d565b865550611013565b601f198416610fc186610d9d565b60005b82811015610fe957848901518255600182019150602085019450602081019050610fc4565b868310156110065784890151611002601f891682610f0f565b8355505b6001600288020188555050505b505050505050565b6000815461102881610bb9565b61103281866108b5565b9450600182166000811461104d576001811461106357611096565b60ff198316865281151560200286019350611096565b61106c85610d9d565b60005b8381101561108e5781548189015260018201915060208101905061106f565b808801955050505b50505092915050565b60008160001c9050919050565b600073ffffffffffffffffffffffffffffffffffffffff82169050919050565b60006110df6110da8361109f565b6110ac565b9050919050565b6000819050919050565b60006111036110fe8361109f565b6110e6565b9050919050565b600060ff82169050919050565b600061112a6111258361109f565b61110a565b9050919050565b600060e083016000808401858303600087015261114e838261101b565b925050600184018583036020870152611167838261101b565b9250506002840154905061117a816110cc565b611187604087018261095b565b5060038401549050611198816110f0565b6111a56060870182610974565b50600484015490506111b6816110f0565b6111c36080870182610974565b50600584015490506111d4816110f0565b6111e160a0870182610974565b50600684015490506111f281611117565b6111ff60c08701826109eb565b50819250505092915050565b600060208201905081810360008301526112258184611131565b905092915050565b7f4e487b7100000000000000000000000000000000000000000000000000000000600052603260045260246000fdfea2646970667358221220c75d4d88328d5213670792c0cbc88f2da02af46ae373093257f498ebd11e967864736f6c63430008130033","opcodes":"PUSH1 0x80 PUSH1 0x40 MSTORE CALLVALUE DUP1 ISZERO PUSH2 0x10 JUMPI PUSH1 0x0 DUP1 REVERT JUMPDEST POP PUSH1 0x1 PUSH1 0x2 DUP2 SWAP1 SSTORE POP PUSH2 0x1292 DUP1 PUSH2 0x28 PUSH1 0x0 CODECOPY PUSH1 0x0 RETURN INVALID PUSH1 0x80 PUSH1 0x40 MSTORE PUSH1 0x4 CALLDATASIZE LT PUSH2 0x29 JUMPI PUSH1 0x0 CALLDATALOAD PUSH1 0xE0 SHR DUP1 PUSH4 0x298B327C EQ PUSH2 0x2E JUMPI DUP1 PUSH4 0xA318F269 EQ PUSH2 0x6B JUMPI JUMPDEST PUSH1 0x0 DUP1 REVERT JUMPDEST CALLVALUE DUP1 ISZERO PUSH2 0x3A JUMPI PUSH1 0x0 DUP1 REVERT JUMPDEST POP PUSH2 0x55 PUSH1 0x4 DUP1 CALLDATASIZE SUB DUP2 ADD SWAP1 PUSH2 0x50 SWAP2 SWAP1 PUSH2 0x861 JUMP JUMPDEST PUSH2 0x87 JUMP JUMPDEST PUSH1 0x40 MLOAD PUSH2 0x62 SWAP2 SWAP1 PUSH2 0xA9D JUMP JUMPDEST PUSH1 0x40 MLOAD DUP1 SWAP2 SUB SWAP1 RETURN JUMPDEST PUSH2 0x85 PUSH1 0x4 DUP1 CALLDATASIZE SUB DUP2 ADD SWAP1 PUSH2 0x80 SWAP2 SWAP1 PUSH2 0xAEB JUMP JUMPDEST PUSH2 0x394 JUMP JUMPDEST STOP JUMPDEST PUSH2 0x8F PUSH2 0x6A2 JUMP JUMPDEST PUSH1 0x0 JUMPDEST PUSH1 0x2 SLOAD DUP2 LT ISZERO PUSH2 0x353 JUMPI PUSH2 0x143 PUSH1 0x0 DUP1 DUP4 DUP2 MSTORE PUSH1 0x20 ADD SWAP1 DUP2 MSTORE PUSH1 0x20 ADD PUSH1 0x0 KECCAK256 PUSH1 0x0 ADD DUP1 SLOAD PUSH2 0xBF SWAP1 PUSH2 0xBB9 JUMP JUMPDEST DUP1 PUSH1 0x1F ADD PUSH1 0x20 DUP1 SWAP2 DIV MUL PUSH1 0x20 ADD PUSH1 0x40 MLOAD SWAP1 DUP2 ADD PUSH1 0x40 MSTORE DUP1 SWAP3 SWAP2 SWAP1 DUP2 DUP2 MSTORE PUSH1 0x20 ADD DUP3 DUP1 SLOAD PUSH2 0xEB SWAP1 PUSH2 0xBB9 JUMP JUMPDEST DUP1 ISZERO PUSH2 0x138 JUMPI DUP1 PUSH1 0x1F LT PUSH2 0x10D JUMPI PUSH2 0x100 DUP1 DUP4 SLOAD DIV MUL DUP4 MSTORE SWAP2 PUSH1 0x20 ADD SWAP2 PUSH2 0x138 JUMP JUMPDEST DUP3 ADD SWAP2 SWAP1 PUSH1 0x0 MSTORE PUSH1 0x20 PUSH1 0x0 KECCAK256 SWAP1 JUMPDEST DUP2 SLOAD DUP2 MSTORE SWAP1 PUSH1 0x1 ADD SWAP1 PUSH1 0x20 ADD DUP1 DUP4 GT PUSH2 0x11B JUMPI DUP3 SWAP1 SUB PUSH1 0x1F AND DUP3 ADD SWAP2 JUMPDEST POP POP POP POP POP DUP5 PUSH2 0x5D4 JUMP JUMPDEST ISZERO PUSH2 0x340 JUMPI PUSH1 0x0 DUP1 DUP3 DUP2 MSTORE PUSH1 0x20 ADD SWAP1 DUP2 MSTORE PUSH1 0x20 ADD PUSH1 0x0 KECCAK256 PUSH1 0x40 MLOAD DUP1 PUSH1 0xE0 ADD PUSH1 0x40 MSTORE SWAP1 DUP2 PUSH1 0x0 DUP3 ADD DUP1 SLOAD PUSH2 0x175 SWAP1 PUSH2 0xBB9 JUMP JUMPDEST DUP1 PUSH1 0x1F ADD PUSH1 0x20 DUP1 SWAP2 DIV MUL PUSH1 0x20 ADD PUSH1 0x40 MLOAD SWAP1 DUP2 ADD PUSH1 0x40 MSTORE DUP1 SWAP3 SWAP2 SWAP1 DUP2 DUP2 MSTORE PUSH1 0x20 ADD DUP3 DUP1 SLOAD PUSH2 0x1A1 SWAP1 PUSH2 0xBB9 JUMP JUMPDEST DUP1 ISZERO PUSH2 0x1EE JUMPI DUP1 PUSH1 0x1F LT PUSH2 0x1C3 JUMPI PUSH2 0x100 DUP1 DUP4 SLOAD DIV MUL DUP4 MSTORE SWAP2 PUSH1 0x20 ADD SWAP2 PUSH2 0x1EE JUMP JUMPDEST DUP3 ADD SWAP2 SWAP1 PUSH1 0x0 MSTORE PUSH1 0x20 PUSH1 0x0 KECCAK256 SWAP1 JUMPDEST DUP2 SLOAD DUP2 MSTORE SWAP1 PUSH1 0x1 ADD SWAP1 PUSH1 0x20 ADD DUP1 DUP4 GT PUSH2 0x1D1 JUMPI DUP3 SWAP1 SUB PUSH1 0x1F AND DUP3 ADD SWAP2 JUMPDEST POP POP POP POP POP DUP2 MSTORE PUSH1 0x20 ADD PUSH1 0x1 DUP3 ADD DUP1 SLOAD PUSH2 0x207 SWAP1 PUSH2 0xBB9 JUMP JUMPDEST DUP1 PUSH1 0x1F ADD PUSH1 0x20 DUP1 SWAP2 DIV MUL PUSH1 0x20 ADD PUSH1 0x40 MLOAD SWAP1 DUP2 ADD PUSH1 0x40 MSTORE DUP1 SWAP3 SWAP2 SWAP1 DUP2 DUP2 MSTORE PUSH1 0x20 ADD DUP3 DUP1 SLOAD PUSH2 0x233 SWAP1 PUSH2 0xBB9 JUMP JUMPDEST DUP1 ISZERO PUSH2 0x280 JUMPI DUP1 PUSH1 0x1F LT PUSH2 0x255 JUMPI PUSH2 0x100 DUP1 DUP4 SLOAD DIV MUL DUP4 MSTORE SWAP2 PUSH1 0x20 ADD SWAP2 PUSH2 0x280 JUMP JUMPDEST DUP3 ADD SWAP2 SWAP1 PUSH1 0x0 MSTORE PUSH1 0x20 PUSH1 0x0 KECCAK256 SWAP1 JUMPDEST DUP2 SLOAD DUP2 MSTORE SWAP1 PUSH1 0x1 ADD SWAP1 PUSH1 0x20 ADD DUP1 DUP4 GT PUSH2 0x263 JUMPI DUP3 SWAP1 SUB PUSH1 0x1F AND DUP3 ADD SWAP2 JUMPDEST POP POP POP POP POP DUP2 MSTORE PUSH1 0x20 ADD PUSH1 0x2 DUP3 ADD PUSH1 0x0 SWAP1 SLOAD SWAP1 PUSH2 0x100 EXP SWAP1 DIV PUSH20 0xFFFFFFFFFFFFFFFFFFFFFFFFFFFFFFFFFFFFFFFF AND PUSH20 0xFFFFFFFFFFFFFFFFFFFFFFFFFFFFFFFFFFFFFFFF AND PUSH20 0xFFFFFFFFFFFFFFFFFFFFFFFFFFFFFFFFFFFFFFFF AND DUP2 MSTORE PUSH1 0x20 ADD PUSH1 0x3 DUP3 ADD SLOAD DUP2 MSTORE PUSH1 0x20 ADD PUSH1 0x4 DUP3 ADD SLOAD DUP2 MSTORE PUSH1 0x20 ADD PUSH1 0x5 DUP3 ADD SLOAD DUP2 MSTORE PUSH1 0x20 ADD PUSH1 0x6 DUP3 ADD PUSH1 0x0 SWAP1 SLOAD SWAP1 PUSH2 0x100 EXP SWAP1 DIV PUSH1 0xFF AND PUSH1 0x2 DUP2 GT ISZERO PUSH2 0x322 JUMPI PUSH2 0x321 PUSH2 0x983 JUMP JUMPDEST JUMPDEST PUSH1 0x2 DUP2 GT ISZERO PUSH2 0x334 JUMPI PUSH2 0x333 PUSH2 0x983 JUMP JUMPDEST JUMPDEST DUP2 MSTORE POP POP SWAP2 POP POP PUSH2 0x38F JUMP JUMPDEST DUP1 DUP1 PUSH2 0x34B SWAP1 PUSH2 0xC19 JUMP JUMPDEST SWAP2 POP POP PUSH2 0x92 JUMP JUMPDEST POP PUSH1 0x40 MLOAD PUSH32 0x8C379A000000000000000000000000000000000000000000000000000000000 DUP2 MSTORE PUSH1 0x4 ADD PUSH2 0x386 SWAP1 PUSH2 0xCBE JUMP JUMPDEST PUSH1 0x40 MLOAD DUP1 SWAP2 SUB SWAP1 REVERT JUMPDEST SWAP2 SWAP1 POP JUMP JUMPDEST DUP4 PUSH1 0x1 DUP2 PUSH1 0x40 MLOAD PUSH2 0x3A5 SWAP2 SWAP1 PUSH2 0xD1A JUMP JUMPDEST SWAP1 DUP2 MSTORE PUSH1 0x20 ADD PUSH1 0x40 MLOAD DUP1 SWAP2 SUB SWAP1 KECCAK256 PUSH1 0x0 SWAP1 SLOAD SWAP1 PUSH2 0x100 EXP SWAP1 DIV PUSH1 0xFF AND ISZERO PUSH2 0x401 JUMPI PUSH1 0x40 MLOAD PUSH32 0x8C379A000000000000000000000000000000000000000000000000000000000 DUP2 MSTORE PUSH1 0x4 ADD PUSH2 0x3F8 SWAP1 PUSH2 0xD7D JUMP JUMPDEST PUSH1 0x40 MLOAD DUP1 SWAP2 SUB SWAP1 REVERT JUMPDEST PUSH1 0x40 MLOAD DUP1 PUSH1 0xE0 ADD PUSH1 0x40 MSTORE DUP1 DUP7 DUP2 MSTORE PUSH1 0x20 ADD DUP6 DUP2 MSTORE PUSH1 0x20 ADD CALLER PUSH20 0xFFFFFFFFFFFFFFFFFFFFFFFFFFFFFFFFFFFFFFFF AND DUP2 MSTORE PUSH1 0x20 ADD DUP5 DUP2 MSTORE PUSH1 0x20 ADD DUP5 DUP2 MSTORE PUSH1 0x20 ADD DUP4 DUP2 MSTORE PUSH1 0x20 ADD PUSH1 0x0 PUSH1 0x2 DUP2 GT ISZERO PUSH2 0x45A JUMPI PUSH2 0x459 PUSH2 0x983 JUMP JUMPDEST JUMPDEST DUP2 MSTORE POP PUSH1 0x0 DUP1 PUSH1 0x2 SLOAD DUP2 MSTORE PUSH1 0x20 ADD SWAP1 DUP2 MSTORE PUSH1 0x20 ADD PUSH1 0x0 KECCAK256 PUSH1 0x0 DUP3 ADD MLOAD DUP2 PUSH1 0x0 ADD SWAP1 DUP2 PUSH2 0x486 SWAP2 SWAP1 PUSH2 0xF49 JUMP JUMPDEST POP PUSH1 0x20 DUP3 ADD MLOAD DUP2 PUSH1 0x1 ADD SWAP1 DUP2 PUSH2 0x49C SWAP2 SWAP1 PUSH2 0xF49 JUMP JUMPDEST POP PUSH1 0x40 DUP3 ADD MLOAD DUP2 PUSH1 0x2 ADD PUSH1 0x0 PUSH2 0x100 EXP DUP2 SLOAD DUP2 PUSH20 0xFFFFFFFFFFFFFFFFFFFFFFFFFFFFFFFFFFFFFFFF MUL NOT AND SWAP1 DUP4 PUSH20 0xFFFFFFFFFFFFFFFFFFFFFFFFFFFFFFFFFFFFFFFF AND MUL OR SWAP1 SSTORE POP PUSH1 0x60 DUP3 ADD MLOAD DUP2 PUSH1 0x3 ADD SSTORE PUSH1 0x80 DUP3 ADD MLOAD DUP2 PUSH1 0x4 ADD SSTORE PUSH1 0xA0 DUP3 ADD MLOAD DUP2 PUSH1 0x5 ADD SSTORE PUSH1 0xC0 DUP3 ADD MLOAD DUP2 PUSH1 0x6 ADD PUSH1 0x0 PUSH2 0x100 EXP DUP2 SLOAD DUP2 PUSH1 0xFF MUL NOT AND SWAP1 DUP4 PUSH1 0x2 DUP2 GT ISZERO PUSH2 0x52D JUMPI PUSH2 0x52C PUSH2 0x983 JUMP JUMPDEST JUMPDEST MUL OR SWAP1 SSTORE POP SWAP1 POP POP PUSH1 0x1 DUP1 DUP7 PUSH1 0x40 MLOAD PUSH2 0x546 SWAP2 SWAP1 PUSH2 0xD1A JUMP JUMPDEST SWAP1 DUP2 MSTORE PUSH1 0x20 ADD PUSH1 0x40 MLOAD DUP1 SWAP2 SUB SWAP1 KECCAK256 PUSH1 0x0 PUSH2 0x100 EXP DUP2 SLOAD DUP2 PUSH1 0xFF MUL NOT AND SWAP1 DUP4 ISZERO ISZERO MUL OR SWAP1 SSTORE POP PUSH32 0xC2AF6A68C6FDB5F578E7D82609937628AC8B65BEA2F8F08F56D410AD844E37F7 PUSH1 0x0 DUP1 PUSH1 0x2 SLOAD DUP2 MSTORE PUSH1 0x20 ADD SWAP1 DUP2 MSTORE PUSH1 0x20 ADD PUSH1 0x0 KECCAK256 PUSH1 0x40 MLOAD PUSH2 0x5AD SWAP2 SWAP1 PUSH2 0x120B JUMP JUMPDEST PUSH1 0x40 MLOAD DUP1 SWAP2 SUB SWAP1 LOG1 PUSH1 0x2 PUSH1 0x0 DUP2 SLOAD DUP1 SWAP3 SWAP2 SWAP1 PUSH2 0x5C8 SWAP1 PUSH2 0xC19 JUMP JUMPDEST SWAP2 SWAP1 POP SSTORE POP POP POP POP POP POP JUMP JUMPDEST PUSH1 0x0 DUP2 MLOAD DUP4 MLOAD SUB PUSH2 0x697 JUMPI PUSH1 0x0 JUMPDEST DUP4 MLOAD DUP2 LT ISZERO PUSH2 0x68D JUMPI DUP3 DUP2 DUP2 MLOAD DUP2 LT PUSH2 0x5FE JUMPI PUSH2 0x5FD PUSH2 0x122D JUMP JUMPDEST JUMPDEST PUSH1 0x20 ADD ADD MLOAD PUSH1 0xF8 SHR PUSH1 0xF8 SHL PUSH31 0xFFFFFFFFFFFFFFFFFFFFFFFFFFFFFFFFFFFFFFFFFFFFFFFFFFFFFFFFFFFFFF NOT AND DUP5 DUP3 DUP2 MLOAD DUP2 LT PUSH2 0x63E JUMPI PUSH2 0x63D PUSH2 0x122D JUMP JUMPDEST JUMPDEST PUSH1 0x20 ADD ADD MLOAD PUSH1 0xF8 SHR PUSH1 0xF8 SHL PUSH31 0xFFFFFFFFFFFFFFFFFFFFFFFFFFFFFFFFFFFFFFFFFFFFFFFFFFFFFFFFFFFFFF NOT AND EQ PUSH2 0x67A JUMPI PUSH1 0x0 SWAP2 POP POP PUSH2 0x69C JUMP JUMPDEST DUP1 DUP1 PUSH2 0x685 SWAP1 PUSH2 0xC19 JUMP JUMPDEST SWAP2 POP POP PUSH2 0x5E2 JUMP JUMPDEST POP PUSH1 0x1 SWAP1 POP PUSH2 0x69C JUMP JUMPDEST PUSH1 0x0 SWAP1 POP JUMPDEST SWAP3 SWAP2 POP POP JUMP JUMPDEST PUSH1 0x40 MLOAD DUP1 PUSH1 0xE0 ADD PUSH1 0x40 MSTORE DUP1 PUSH1 0x60 DUP2 MSTORE PUSH1 0x20 ADD PUSH1 0x60 DUP2 MSTORE PUSH1 0x20 ADD PUSH1 0x0 PUSH20 0xFFFFFFFFFFFFFFFFFFFFFFFFFFFFFFFFFFFFFFFF AND DUP2 MSTORE PUSH1 0x20 ADD PUSH1 0x0 DUP2 MSTORE PUSH1 0x20 ADD PUSH1 0x0 DUP2 MSTORE PUSH1 0x20 ADD PUSH1 0x0 DUP2 MSTORE PUSH1 0x20 ADD PUSH1 0x0 PUSH1 0x2 DUP2 GT ISZERO PUSH2 0x701 JUMPI PUSH2 0x700 PUSH2 0x983 JUMP JUMPDEST JUMPDEST DUP2 MSTORE POP SWAP1 JUMP JUMPDEST PUSH1 0x0 PUSH1 0x40 MLOAD SWAP1 POP SWAP1 JUMP JUMPDEST PUSH1 0x0 DUP1 REVERT JUMPDEST PUSH1 0x0 DUP1 REVERT JUMPDEST PUSH1 0x0 DUP1 REVERT JUMPDEST PUSH1 0x0 DUP1 REVERT JUMPDEST PUSH1 0x0 PUSH1 0x1F NOT PUSH1 0x1F DUP4 ADD AND SWAP1 POP SWAP2 SWAP1 POP JUMP JUMPDEST PUSH32 0x4E487B7100000000000000000000000000000000000000000000000000000000 PUSH1 0x0 MSTORE PUSH1 0x41 PUSH1 0x4 MSTORE PUSH1 0x24 PUSH1 0x0 REVERT JUMPDEST PUSH2 0x76E DUP3 PUSH2 0x725 JUMP JUMPDEST DUP2 ADD DUP2 DUP2 LT PUSH8 0xFFFFFFFFFFFFFFFF DUP3 GT OR ISZERO PUSH2 0x78D JUMPI PUSH2 0x78C PUSH2 0x736 JUMP JUMPDEST JUMPDEST DUP1 PUSH1 0x40 MSTORE POP POP POP JUMP JUMPDEST PUSH1 0x0 PUSH2 0x7A0 PUSH2 0x707 JUMP JUMPDEST SWAP1 POP PUSH2 0x7AC DUP3 DUP3 PUSH2 0x765 JUMP JUMPDEST SWAP2 SWAP1 POP JUMP JUMPDEST PUSH1 0x0 PUSH8 0xFFFFFFFFFFFFFFFF DUP3 GT ISZERO PUSH2 0x7CC JUMPI PUSH2 0x7CB PUSH2 0x736 JUMP JUMPDEST JUMPDEST PUSH2 0x7D5 DUP3 PUSH2 0x725 JUMP JUMPDEST SWAP1 POP PUSH1 0x20 DUP2 ADD SWAP1 POP SWAP2 SWAP1 POP JUMP JUMPDEST DUP3 DUP2 DUP4 CALLDATACOPY PUSH1 0x0 DUP4 DUP4 ADD MSTORE POP POP POP JUMP JUMPDEST PUSH1 0x0 PUSH2 0x804 PUSH2 0x7FF DUP5 PUSH2 0x7B1 JUMP JUMPDEST PUSH2 0x796 JUMP JUMPDEST SWAP1 POP DUP3 DUP2 MSTORE PUSH1 0x20 DUP2 ADD DUP5 DUP5 DUP5 ADD GT ISZERO PUSH2 0x820 JUMPI PUSH2 0x81F PUSH2 0x720 JUMP JUMPDEST JUMPDEST PUSH2 0x82B DUP5 DUP3 DUP6 PUSH2 0x7E2 JUMP JUMPDEST POP SWAP4 SWAP3 POP POP POP JUMP JUMPDEST PUSH1 0x0 DUP3 PUSH1 0x1F DUP4 ADD SLT PUSH2 0x848 JUMPI PUSH2 0x847 PUSH2 0x71B JUMP JUMPDEST JUMPDEST DUP2 CALLDATALOAD PUSH2 0x858 DUP5 DUP3 PUSH1 0x20 DUP7 ADD PUSH2 0x7F1 JUMP JUMPDEST SWAP2 POP POP SWAP3 SWAP2 POP POP JUMP JUMPDEST PUSH1 0x0 PUSH1 0x20 DUP3 DUP5 SUB SLT ISZERO PUSH2 0x877 JUMPI PUSH2 0x876 PUSH2 0x711 JUMP JUMPDEST JUMPDEST PUSH1 0x0 DUP3 ADD CALLDATALOAD PUSH8 0xFFFFFFFFFFFFFFFF DUP2 GT ISZERO PUSH2 0x895 JUMPI PUSH2 0x894 PUSH2 0x716 JUMP JUMPDEST JUMPDEST PUSH2 0x8A1 DUP5 DUP3 DUP6 ADD PUSH2 0x833 JUMP JUMPDEST SWAP2 POP POP SWAP3 SWAP2 POP POP JUMP JUMPDEST PUSH1 0x0 DUP2 MLOAD SWAP1 POP SWAP2 SWAP1 POP JUMP JUMPDEST PUSH1 0x0 DUP3 DUP3 MSTORE PUSH1 0x20 DUP3 ADD SWAP1 POP SWAP3 SWAP2 POP POP JUMP JUMPDEST PUSH1 0x0 JUMPDEST DUP4 DUP2 LT ISZERO PUSH2 0x8E4 JUMPI DUP1 DUP3 ADD MLOAD DUP2 DUP5 ADD MSTORE PUSH1 0x20 DUP2 ADD SWAP1 POP PUSH2 0x8C9 JUMP JUMPDEST PUSH1 0x0 DUP5 DUP5 ADD MSTORE POP POP POP POP JUMP JUMPDEST PUSH1 0x0 PUSH2 0x8FB DUP3 PUSH2 0x8AA JUMP JUMPDEST PUSH2 0x905 DUP2 DUP6 PUSH2 0x8B5 JUMP JUMPDEST SWAP4 POP PUSH2 0x915 DUP2 DUP6 PUSH1 0x20 DUP7 ADD PUSH2 0x8C6 JUMP JUMPDEST PUSH2 0x91E DUP2 PUSH2 0x725 JUMP JUMPDEST DUP5 ADD SWAP2 POP POP SWAP3 SWAP2 POP POP JUMP JUMPDEST PUSH1 0x0 PUSH20 0xFFFFFFFFFFFFFFFFFFFFFFFFFFFFFFFFFFFFFFFF DUP3 AND SWAP1 POP SWAP2 SWAP1 POP JUMP JUMPDEST PUSH1 0x0 PUSH2 0x954 DUP3 PUSH2 0x929 JUMP JUMPDEST SWAP1 POP SWAP2 SWAP1 POP JUMP JUMPDEST PUSH2 0x964 DUP2 PUSH2 0x949 JUMP JUMPDEST DUP3 MSTORE POP POP JUMP JUMPDEST PUSH1 0x0 DUP2 SWAP1 POP SWAP2 SWAP1 POP JUMP JUMPDEST PUSH2 0x97D DUP2 PUSH2 0x96A JUMP JUMPDEST DUP3 MSTORE POP POP JUMP JUMPDEST PUSH32 0x4E487B7100000000000000000000000000000000000000000000000000000000 PUSH1 0x0 MSTORE PUSH1 0x21 PUSH1 0x4 MSTORE PUSH1 0x24 PUSH1 0x0 REVERT JUMPDEST PUSH1 0x3 DUP2 LT PUSH2 0x9C3 JUMPI PUSH2 0x9C2 PUSH2 0x983 JUMP JUMPDEST JUMPDEST POP JUMP JUMPDEST PUSH1 0x0 DUP2 SWAP1 POP PUSH2 0x9D4 DUP3 PUSH2 0x9B2 JUMP JUMPDEST SWAP2 SWAP1 POP JUMP JUMPDEST PUSH1 0x0 PUSH2 0x9E4 DUP3 PUSH2 0x9C6 JUMP JUMPDEST SWAP1 POP SWAP2 SWAP1 POP JUMP JUMPDEST PUSH2 0x9F4 DUP2 PUSH2 0x9D9 JUMP JUMPDEST DUP3 MSTORE POP POP JUMP JUMPDEST PUSH1 0x0 PUSH1 0xE0 DUP4 ADD PUSH1 0x0 DUP4 ADD MLOAD DUP5 DUP3 SUB PUSH1 0x0 DUP7 ADD MSTORE PUSH2 0xA17 DUP3 DUP3 PUSH2 0x8F0 JUMP JUMPDEST SWAP2 POP POP PUSH1 0x20 DUP4 ADD MLOAD DUP5 DUP3 SUB PUSH1 0x20 DUP7 ADD MSTORE PUSH2 0xA31 DUP3 DUP3 PUSH2 0x8F0 JUMP JUMPDEST SWAP2 POP POP PUSH1 0x40 DUP4 ADD MLOAD PUSH2 0xA46 PUSH1 0x40 DUP7 ADD DUP3 PUSH2 0x95B JUMP JUMPDEST POP PUSH1 0x60 DUP4 ADD MLOAD PUSH2 0xA59 PUSH1 0x60 DUP7 ADD DUP3 PUSH2 0x974 JUMP JUMPDEST POP PUSH1 0x80 DUP4 ADD MLOAD PUSH2 0xA6C PUSH1 0x80 DUP7 ADD DUP3 PUSH2 0x974 JUMP JUMPDEST POP PUSH1 0xA0 DUP4 ADD MLOAD PUSH2 0xA7F PUSH1 0xA0 DUP7 ADD DUP3 PUSH2 0x974 JUMP JUMPDEST POP PUSH1 0xC0 DUP4 ADD MLOAD PUSH2 0xA92 PUSH1 0xC0 DUP7 ADD DUP3 PUSH2 0x9EB JUMP JUMPDEST POP DUP1 SWAP2 POP POP SWAP3 SWAP2 POP POP JUMP JUMPDEST PUSH1 0x0 PUSH1 0x20 DUP3 ADD SWAP1 POP DUP2 DUP2 SUB PUSH1 0x0 DUP4 ADD MSTORE PUSH2 0xAB7 DUP2 DUP5 PUSH2 0x9FA JUMP JUMPDEST SWAP1 POP SWAP3 SWAP2 POP POP JUMP JUMPDEST PUSH2 0xAC8 DUP2 PUSH2 0x96A JUMP JUMPDEST DUP2 EQ PUSH2 0xAD3 JUMPI PUSH1 0x0 DUP1 REVERT JUMPDEST POP JUMP JUMPDEST PUSH1 0x0 DUP2 CALLDATALOAD SWAP1 POP PUSH2 0xAE5 DUP2 PUSH2 0xABF JUMP JUMPDEST SWAP3 SWAP2 POP POP JUMP JUMPDEST PUSH1 0x0 DUP1 PUSH1 0x0 DUP1 PUSH1 0x80 DUP6 DUP8 SUB SLT ISZERO PUSH2 0xB05 JUMPI PUSH2 0xB04 PUSH2 0x711 JUMP JUMPDEST JUMPDEST PUSH1 0x0 DUP6 ADD CALLDATALOAD PUSH8 0xFFFFFFFFFFFFFFFF DUP2 GT ISZERO PUSH2 0xB23 JUMPI PUSH2 0xB22 PUSH2 0x716 JUMP JUMPDEST JUMPDEST PUSH2 0xB2F DUP8 DUP3 DUP9 ADD PUSH2 0x833 JUMP JUMPDEST SWAP5 POP POP PUSH1 0x20 DUP6 ADD CALLDATALOAD PUSH8 0xFFFFFFFFFFFFFFFF DUP2 GT ISZERO PUSH2 0xB50 JUMPI PUSH2 0xB4F PUSH2 0x716 JUMP JUMPDEST JUMPDEST PUSH2 0xB5C DUP8 DUP3 DUP9 ADD PUSH2 0x833 JUMP JUMPDEST SWAP4 POP POP PUSH1 0x40 PUSH2 0xB6D DUP8 DUP3 DUP9 ADD PUSH2 0xAD6 JUMP JUMPDEST SWAP3 POP POP PUSH1 0x60 PUSH2 0xB7E DUP8 DUP3 DUP9 ADD PUSH2 0xAD6 JUMP JUMPDEST SWAP2 POP POP SWAP3 SWAP6 SWAP2 SWAP5 POP SWAP3 POP JUMP JUMPDEST PUSH32 0x4E487B7100000000000000000000000000000000000000000000000000000000 PUSH1 0x0 MSTORE PUSH1 0x22 PUSH1 0x4 MSTORE PUSH1 0x24 PUSH1 0x0 REVERT JUMPDEST PUSH1 0x0 PUSH1 0x2 DUP3 DIV SWAP1 POP PUSH1 0x1 DUP3 AND DUP1 PUSH2 0xBD1 JUMPI PUSH1 0x7F DUP3 AND SWAP2 POP JUMPDEST PUSH1 0x20 DUP3 LT DUP2 SUB PUSH2 0xBE4 JUMPI PUSH2 0xBE3 PUSH2 0xB8A JUMP JUMPDEST JUMPDEST POP SWAP2 SWAP1 POP JUMP JUMPDEST PUSH32 0x4E487B7100000000000000000000000000000000000000000000000000000000 PUSH1 0x0 MSTORE PUSH1 0x11 PUSH1 0x4 MSTORE PUSH1 0x24 PUSH1 0x0 REVERT JUMPDEST PUSH1 0x0 PUSH2 0xC24 DUP3 PUSH2 0x96A JUMP JUMPDEST SWAP2 POP PUSH32 0xFFFFFFFFFFFFFFFFFFFFFFFFFFFFFFFFFFFFFFFFFFFFFFFFFFFFFFFFFFFFFFFF DUP3 SUB PUSH2 0xC56 JUMPI PUSH2 0xC55 PUSH2 0xBEA JUMP JUMPDEST JUMPDEST PUSH1 0x1 DUP3 ADD SWAP1 POP SWAP2 SWAP1 POP JUMP JUMPDEST PUSH1 0x0 DUP3 DUP3 MSTORE PUSH1 0x20 DUP3 ADD SWAP1 POP SWAP3 SWAP2 POP POP JUMP JUMPDEST PUSH32 0x43616D706169676E206E6F7420666F756E642100000000000000000000000000 PUSH1 0x0 DUP3 ADD MSTORE POP JUMP JUMPDEST PUSH1 0x0 PUSH2 0xCA8 PUSH1 0x13 DUP4 PUSH2 0xC61 JUMP JUMPDEST SWAP2 POP PUSH2 0xCB3 DUP3 PUSH2 0xC72 JUMP JUMPDEST PUSH1 0x20 DUP3 ADD SWAP1 POP SWAP2 SWAP1 POP JUMP JUMPDEST PUSH1 0x0 PUSH1 0x20 DUP3 ADD SWAP1 POP DUP2 DUP2 SUB PUSH1 0x0 DUP4 ADD MSTORE PUSH2 0xCD7 DUP2 PUSH2 0xC9B JUMP JUMPDEST SWAP1 POP SWAP2 SWAP1 POP JUMP JUMPDEST PUSH1 0x0 DUP2 SWAP1 POP SWAP3 SWAP2 POP POP JUMP JUMPDEST PUSH1 0x0 PUSH2 0xCF4 DUP3 PUSH2 0x8AA JUMP JUMPDEST PUSH2 0xCFE DUP2 DUP6 PUSH2 0xCDE JUMP JUMPDEST SWAP4 POP PUSH2 0xD0E DUP2 DUP6 PUSH1 0x20 DUP7 ADD PUSH2 0x8C6 JUMP JUMPDEST DUP1 DUP5 ADD SWAP2 POP POP SWAP3 SWAP2 POP POP JUMP JUMPDEST PUSH1 0x0 PUSH2 0xD26 DUP3 DUP5 PUSH2 0xCE9 JUMP JUMPDEST SWAP2 POP DUP2 SWAP1 POP SWAP3 SWAP2 POP POP JUMP JUMPDEST PUSH32 0x43616D706169676E20616C726561647920657869737473210000000000000000 PUSH1 0x0 DUP3 ADD MSTORE POP JUMP JUMPDEST PUSH1 0x0 PUSH2 0xD67 PUSH1 0x18 DUP4 PUSH2 0xC61 JUMP JUMPDEST SWAP2 POP PUSH2 0xD72 DUP3 PUSH2 0xD31 JUMP JUMPDEST PUSH1 0x20 DUP3 ADD SWAP1 POP SWAP2 SWAP1 POP JUMP JUMPDEST PUSH1 0x0 PUSH1 0x20 DUP3 ADD SWAP1 POP DUP2 DUP2 SUB PUSH1 0x0 DUP4 ADD MSTORE PUSH2 0xD96 DUP2 PUSH2 0xD5A JUMP JUMPDEST SWAP1 POP SWAP2 SWAP1 POP JUMP JUMPDEST PUSH1 0x0 DUP2 SWAP1 POP DUP2 PUSH1 0x0 MSTORE PUSH1 0x20 PUSH1 0x0 KECCAK256 SWAP1 POP SWAP2 SWAP1 POP JUMP JUMPDEST PUSH1 0x0 PUSH1 0x20 PUSH1 0x1F DUP4 ADD DIV SWAP1 POP SWAP2 SWAP1 POP JUMP JUMPDEST PUSH1 0x0 DUP3 DUP3 SHL SWAP1 POP SWAP3 SWAP2 POP POP JUMP JUMPDEST PUSH1 0x0 PUSH1 0x8 DUP4 MUL PUSH2 0xDFF PUSH32 0xFFFFFFFFFFFFFFFFFFFFFFFFFFFFFFFFFFFFFFFFFFFFFFFFFFFFFFFFFFFFFFFF DUP3 PUSH2 0xDC2 JUMP JUMPDEST PUSH2 0xE09 DUP7 DUP4 PUSH2 0xDC2 JUMP JUMPDEST SWAP6 POP DUP1 NOT DUP5 AND SWAP4 POP DUP1 DUP7 AND DUP5 OR SWAP3 POP POP POP SWAP4 SWAP3 POP POP POP JUMP JUMPDEST PUSH1 0x0 DUP2 SWAP1 POP SWAP2 SWAP1 POP JUMP JUMPDEST PUSH1 0x0 PUSH2 0xE46 PUSH2 0xE41 PUSH2 0xE3C DUP5 PUSH2 0x96A JUMP JUMPDEST PUSH2 0xE21 JUMP JUMPDEST PUSH2 0x96A JUMP JUMPDEST SWAP1 POP SWAP2 SWAP1 POP JUMP JUMPDEST PUSH1 0x0 DUP2 SWAP1 POP SWAP2 SWAP1 POP JUMP JUMPDEST PUSH2 0xE60 DUP4 PUSH2 0xE2B JUMP JUMPDEST PUSH2 0xE74 PUSH2 0xE6C DUP3 PUSH2 0xE4D JUMP JUMPDEST DUP5 DUP5 SLOAD PUSH2 0xDCF JUMP JUMPDEST DUP3 SSTORE POP POP POP POP JUMP JUMPDEST PUSH1 0x0 SWAP1 JUMP JUMPDEST PUSH2 0xE89 PUSH2 0xE7C JUMP JUMPDEST PUSH2 0xE94 DUP2 DUP5 DUP5 PUSH2 0xE57 JUMP JUMPDEST POP POP POP JUMP JUMPDEST JUMPDEST DUP2 DUP2 LT ISZERO PUSH2 0xEB8 JUMPI PUSH2 0xEAD PUSH1 0x0 DUP3 PUSH2 0xE81 JUMP JUMPDEST PUSH1 0x1 DUP2 ADD SWAP1 POP PUSH2 0xE9A JUMP JUMPDEST POP POP JUMP JUMPDEST PUSH1 0x1F DUP3 GT ISZERO PUSH2 0xEFD JUMPI PUSH2 0xECE DUP2 PUSH2 0xD9D JUMP JUMPDEST PUSH2 0xED7 DUP5 PUSH2 0xDB2 JUMP JUMPDEST DUP2 ADD PUSH1 0x20 DUP6 LT ISZERO PUSH2 0xEE6 JUMPI DUP2 SWAP1 POP JUMPDEST PUSH2 0xEFA PUSH2 0xEF2 DUP6 PUSH2 0xDB2 JUMP JUMPDEST DUP4 ADD DUP3 PUSH2 0xE99 JUMP JUMPDEST POP POP JUMPDEST POP POP POP JUMP JUMPDEST PUSH1 0x0 DUP3 DUP3 SHR SWAP1 POP SWAP3 SWAP2 POP POP JUMP JUMPDEST PUSH1 0x0 PUSH2 0xF20 PUSH1 0x0 NOT DUP5 PUSH1 0x8 MUL PUSH2 0xF02 JUMP JUMPDEST NOT DUP1 DUP4 AND SWAP2 POP POP SWAP3 SWAP2 POP POP JUMP JUMPDEST PUSH1 0x0 PUSH2 0xF39 DUP4 DUP4 PUSH2 0xF0F JUMP JUMPDEST SWAP2 POP DUP3 PUSH1 0x2 MUL DUP3 OR SWAP1 POP SWAP3 SWAP2 POP POP JUMP JUMPDEST PUSH2 0xF52 DUP3 PUSH2 0x8AA JUMP JUMPDEST PUSH8 0xFFFFFFFFFFFFFFFF DUP2 GT ISZERO PUSH2 0xF6B JUMPI PUSH2 0xF6A PUSH2 0x736 JUMP JUMPDEST JUMPDEST PUSH2 0xF75 DUP3 SLOAD PUSH2 0xBB9 JUMP JUMPDEST PUSH2 0xF80 DUP3 DUP3 DUP6 PUSH2 0xEBC JUMP JUMPDEST PUSH1 0x0 PUSH1 0x20 SWAP1 POP PUSH1 0x1F DUP4 GT PUSH1 0x1 DUP2 EQ PUSH2 0xFB3 JUMPI PUSH1 0x0 DUP5 ISZERO PUSH2 0xFA1 JUMPI DUP3 DUP8 ADD MLOAD SWAP1 POP JUMPDEST PUSH2 0xFAB DUP6 DUP3 PUSH2 0xF2D JUMP JUMPDEST DUP7 SSTORE POP PUSH2 0x1013 JUMP JUMPDEST PUSH1 0x1F NOT DUP5 AND PUSH2 0xFC1 DUP7 PUSH2 0xD9D JUMP JUMPDEST PUSH1 0x0 JUMPDEST DUP3 DUP2 LT ISZERO PUSH2 0xFE9 JUMPI DUP5 DUP10 ADD MLOAD DUP3 SSTORE PUSH1 0x1 DUP3 ADD SWAP2 POP PUSH1 0x20 DUP6 ADD SWAP5 POP PUSH1 0x20 DUP2 ADD SWAP1 POP PUSH2 0xFC4 JUMP JUMPDEST DUP7 DUP4 LT ISZERO PUSH2 0x1006 JUMPI DUP5 DUP10 ADD MLOAD PUSH2 0x1002 PUSH1 0x1F DUP10 AND DUP3 PUSH2 0xF0F JUMP JUMPDEST DUP4 SSTORE POP JUMPDEST PUSH1 0x1 PUSH1 0x2 DUP9 MUL ADD DUP9 SSTORE POP POP POP JUMPDEST POP POP POP POP POP POP JUMP JUMPDEST PUSH1 0x0 DUP2 SLOAD PUSH2 0x1028 DUP2 PUSH2 0xBB9 JUMP JUMPDEST PUSH2 0x1032 DUP2 DUP7 PUSH2 0x8B5 JUMP JUMPDEST SWAP5 POP PUSH1 0x1 DUP3 AND PUSH1 0x0 DUP2 EQ PUSH2 0x104D JUMPI PUSH1 0x1 DUP2 EQ PUSH2 0x1063 JUMPI PUSH2 0x1096 JUMP JUMPDEST PUSH1 0xFF NOT DUP4 AND DUP7 MSTORE DUP2 ISZERO ISZERO PUSH1 0x20 MUL DUP7 ADD SWAP4 POP PUSH2 0x1096 JUMP JUMPDEST PUSH2 0x106C DUP6 PUSH2 0xD9D JUMP JUMPDEST PUSH1 0x0 JUMPDEST DUP4 DUP2 LT ISZERO PUSH2 0x108E JUMPI DUP2 SLOAD DUP2 DUP10 ADD MSTORE PUSH1 0x1 DUP3 ADD SWAP2 POP PUSH1 0x20 DUP2 ADD SWAP1 POP PUSH2 0x106F JUMP JUMPDEST DUP1 DUP9 ADD SWAP6 POP POP POP JUMPDEST POP POP POP SWAP3 SWAP2 POP POP JUMP JUMPDEST PUSH1 0x0 DUP2 PUSH1 0x0 SHR SWAP1 POP SWAP2 SWAP1 POP JUMP JUMPDEST PUSH1 0x0 PUSH20 0xFFFFFFFFFFFFFFFFFFFFFFFFFFFFFFFFFFFFFFFF DUP3 AND SWAP1 POP SWAP2 SWAP1 POP JUMP JUMPDEST PUSH1 0x0 PUSH2 0x10DF PUSH2 0x10DA DUP4 PUSH2 0x109F JUMP JUMPDEST PUSH2 0x10AC JUMP JUMPDEST SWAP1 POP SWAP2 SWAP1 POP JUMP JUMPDEST PUSH1 0x0 DUP2 SWAP1 POP SWAP2 SWAP1 POP JUMP JUMPDEST PUSH1 0x0 PUSH2 0x1103 PUSH2 0x10FE DUP4 PUSH2 0x109F JUMP JUMPDEST PUSH2 0x10E6 JUMP JUMPDEST SWAP1 POP SWAP2 SWAP1 POP JUMP JUMPDEST PUSH1 0x0 PUSH1 0xFF DUP3 AND SWAP1 POP SWAP2 SWAP1 POP JUMP JUMPDEST PUSH1 0x0 PUSH2 0x112A PUSH2 0x1125 DUP4 PUSH2 0x109F JUMP JUMPDEST PUSH2 0x110A JUMP JUMPDEST SWAP1 POP SWAP2 SWAP1 POP JUMP JUMPDEST PUSH1 0x0 PUSH1 0xE0 DUP4 ADD PUSH1 0x0 DUP1 DUP5 ADD DUP6 DUP4 SUB PUSH1 0x0 DUP8 ADD MSTORE PUSH2 0x114E DUP4 DUP3 PUSH2 0x101B JUMP JUMPDEST SWAP3 POP POP PUSH1 0x1 DUP5 ADD DUP6 DUP4 SUB PUSH1 0x20 DUP8 ADD MSTORE PUSH2 0x1167 DUP4 DUP3 PUSH2 0x101B JUMP JUMPDEST SWAP3 POP POP PUSH1 0x2 DUP5 ADD SLOAD SWAP1 POP PUSH2 0x117A DUP2 PUSH2 0x10CC JUMP JUMPDEST PUSH2 0x1187 PUSH1 0x40 DUP8 ADD DUP3 PUSH2 0x95B JUMP JUMPDEST POP PUSH1 0x3 DUP5 ADD SLOAD SWAP1 POP PUSH2 0x1198 DUP2 PUSH2 0x10F0 JUMP JUMPDEST PUSH2 0x11A5 PUSH1 0x60 DUP8 ADD DUP3 PUSH2 0x974 JUMP JUMPDEST POP PUSH1 0x4 DUP5 ADD SLOAD SWAP1 POP PUSH2 0x11B6 DUP2 PUSH2 0x10F0 JUMP JUMPDEST PUSH2 0x11C3 PUSH1 0x80 DUP8 ADD DUP3 PUSH2 0x974 JUMP JUMPDEST POP PUSH1 0x5 DUP5 ADD SLOAD SWAP1 POP PUSH2 0x11D4 DUP2 PUSH2 0x10F0 JUMP JUMPDEST PUSH2 0x11E1 PUSH1 0xA0 DUP8 ADD DUP3 PUSH2 0x974 JUMP JUMPDEST POP PUSH1 0x6 DUP5 ADD SLOAD SWAP1 POP PUSH2 0x11F2 DUP2 PUSH2 0x1117 JUMP JUMPDEST PUSH2 0x11FF PUSH1 0xC0 DUP8 ADD DUP3 PUSH2 0x9EB JUMP JUMPDEST POP DUP2 SWAP3 POP POP POP SWAP3 SWAP2 POP POP JUMP JUMPDEST PUSH1 0x0 PUSH1 0x20 DUP3 ADD SWAP1 POP DUP2 DUP2 SUB PUSH1 0x0 DUP4 ADD MSTORE PUSH2 0x1225 DUP2 DUP5 PUSH2 0x1131 JUMP JUMPDEST SWAP1 POP SWAP3 SWAP2 POP POP JUMP JUMPDEST PUSH32 0x4E487B7100000000000000000000000000000000000000000000000000000000 PUSH1 0x0 MSTORE PUSH1 0x32 PUSH1 0x4 MSTORE PUSH1 0x24 PUSH1 0x0 REVERT INVALID LOG2 PUSH5 0x6970667358 0x22 SLT KECCAK256 0xC7 0x5D 0x4D DUP9 ORIGIN DUP14 MSTORE SGT PUSH8 0x792C0CBC88F2DA0 0x2A DELEGATECALL PUSH11 0xE373093257F498EBD11E96 PUSH25 0x64736F6C634300081300330000000000000000000000000000 "},"methodIdentifiers":{"checkCampaigns(string)":"298b327c","createCampaign(string,string,uint256,uint256)":"a318f269"}}}}}