{
  "_format": "hh-sol-artifact-1",
  "contractName": "donate",
  "sourceName": "contracts/donate.sol",
  "abi": [
    {
      "inputs": [],
      "stateMutability": "nonpayable",
      "type": "constructor"
    },
    {
      "anonymous": false,
      "inputs": [
        {
          "components": [
            {
              "internalType": "string",
              "name": "title",
              "type": "string"
            },
            {
              "internalType": "string",
              "name": "description",
              "type": "string"
            },
            {
              "internalType": "address",
              "name": "caddress",
              "type": "address"
            },
            {
              "internalType": "uint256",
              "name": "initialAmount",
              "type": "uint256"
            },
            {
              "internalType": "uint256",
              "name": "currentAmount",
              "type": "uint256"
            },
            {
              "internalType": "uint256",
              "name": "requiredAmount",
              "type": "uint256"
            },
            {
              "internalType": "enum campaign.status",
              "name": "campaignStatus",
              "type": "uint8"
            }
          ],
          "indexed": false,
          "internalType": "struct campaign.campaignDetail",
          "name": "campaign",
          "type": "tuple"
        }
      ],
      "name": "campaignCreated",
      "type": "event"
    },
    {
      "anonymous": false,
      "inputs": [
        {
          "components": [
            {
              "internalType": "string",
              "name": "title",
              "type": "string"
            },
            {
              "internalType": "string",
              "name": "description",
              "type": "string"
            },
            {
              "internalType": "address",
              "name": "caddress",
              "type": "address"
            },
            {
              "internalType": "uint256",
              "name": "initialAmount",
              "type": "uint256"
            },
            {
              "internalType": "uint256",
              "name": "currentAmount",
              "type": "uint256"
            },
            {
              "internalType": "uint256",
              "name": "requiredAmount",
              "type": "uint256"
            },
            {
              "internalType": "enum campaign.status",
              "name": "campaignStatus",
              "type": "uint8"
            }
          ],
          "indexed": false,
          "internalType": "struct campaign.campaignDetail",
          "name": "_campaign",
          "type": "tuple"
        }
      ],
      "name": "campaignSuccessful",
      "type": "event"
    },
    {
      "anonymous": false,
      "inputs": [
        {
          "components": [
            {
              "internalType": "string",
              "name": "title",
              "type": "string"
            },
            {
              "internalType": "string",
              "name": "description",
              "type": "string"
            },
            {
              "internalType": "address",
              "name": "caddress",
              "type": "address"
            },
            {
              "internalType": "uint256",
              "name": "initialAmount",
              "type": "uint256"
            },
            {
              "internalType": "uint256",
              "name": "currentAmount",
              "type": "uint256"
            },
            {
              "internalType": "uint256",
              "name": "requiredAmount",
              "type": "uint256"
            },
            {
              "internalType": "enum campaign.status",
              "name": "campaignStatus",
              "type": "uint8"
            }
          ],
          "indexed": false,
          "internalType": "struct campaign.campaignDetail",
          "name": "_campaign",
          "type": "tuple"
        }
      ],
      "name": "donated",
      "type": "event"
    },
    {
      "inputs": [
        {
          "internalType": "string",
          "name": "_donor",
          "type": "string"
        },
        {
          "internalType": "uint256",
          "name": "_campaignId",
          "type": "uint256"
        },
        {
          "internalType": "uint256",
          "name": "_amount",
          "type": "uint256"
        }
      ],
      "name": "amountDonate",
      "outputs": [],
      "stateMutability": "payable",
      "type": "function"
    },
    {
      "inputs": [
        {
          "internalType": "string",
          "name": "_camp",
          "type": "string"
        }
      ],
      "name": "checkCampaigns",
      "outputs": [
        {
          "components": [
            {
              "internalType": "string",
              "name": "title",
              "type": "string"
            },
            {
              "internalType": "string",
              "name": "description",
              "type": "string"
            },
            {
              "internalType": "address",
              "name": "caddress",
              "type": "address"
            },
            {
              "internalType": "uint256",
              "name": "initialAmount",
              "type": "uint256"
            },
            {
              "internalType": "uint256",
              "name": "currentAmount",
              "type": "uint256"
            },
            {
              "internalType": "uint256",
              "name": "requiredAmount",
              "type": "uint256"
            },
            {
              "internalType": "enum campaign.status",
              "name": "campaignStatus",
              "type": "uint8"
            }
          ],
          "internalType": "struct campaign.campaignDetail",
          "name": "",
          "type": "tuple"
        }
      ],
      "stateMutability": "view",
      "type": "function"
    },
    {
      "inputs": [
        {
          "internalType": "string",
          "name": "_camp",
          "type": "string"
        },
        {
          "internalType": "string",
          "name": "_description",
          "type": "string"
        },
        {
          "internalType": "uint256",
          "name": "_initialAmount",
          "type": "uint256"
        },
        {
          "internalType": "uint256",
          "name": "_requiredAmount",
          "type": "uint256"
        }
      ],
      "name": "createCampaign",
      "outputs": [],
      "stateMutability": "payable",
      "type": "function"
    },
    {
      "inputs": [
        {
          "internalType": "uint256",
          "name": "_campaignId",
          "type": "uint256"
        }
      ],
      "name": "finishCampaign",
      "outputs": [],
      "stateMutability": "nonpayable",
      "type": "function"
    }
  ],
  "bytecode": "0x608060405234801561001057600080fd5b5060016002819055506001600481905550611961806100306000396000f3fe60806040526004361061003f5760003560e01c8063298b327c14610044578063446094b5146100815780635545db0d1461009d578063a318f269146100c6575b600080fd5b34801561005057600080fd5b5061006b60048036038101906100669190610d62565b6100e2565b6040516100789190610f9e565b60405180910390f35b61009b60048036038101906100969190610fec565b6103ef565b005b3480156100a957600080fd5b506100c460048036038101906100bf919061105b565b610781565b005b6100e060048036038101906100db9190611088565b610895565b005b6100ea610ba3565b60005b6002548110156103ae5761019e600080838152602001908152602001600020600001805461011a90611156565b80601f016020809104026020016040519081016040528092919081815260200182805461014690611156565b80156101935780601f1061016857610100808354040283529160200191610193565b820191906000526020600020905b81548152906001019060200180831161017657829003601f168201915b505050505084610ad5565b1561039b576000808281526020019081526020016000206040518060e00160405290816000820180546101d090611156565b80601f01602080910402602001604051908101604052809291908181526020018280546101fc90611156565b80156102495780601f1061021e57610100808354040283529160200191610249565b820191906000526020600020905b81548152906001019060200180831161022c57829003601f168201915b5050505050815260200160018201805461026290611156565b80601f016020809104026020016040519081016040528092919081815260200182805461028e90611156565b80156102db5780601f106102b0576101008083540402835291602001916102db565b820191906000526020600020905b8154815290600101906020018083116102be57829003601f168201915b505050505081526020016002820160009054906101000a900473ffffffffffffffffffffffffffffffffffffffff1673ffffffffffffffffffffffffffffffffffffffff1673ffffffffffffffffffffffffffffffffffffffff1681526020016003820154815260200160048201548152602001600582015481526020016006820160009054906101000a900460ff16600281111561037d5761037c610e84565b5b600281111561038f5761038e610e84565b5b815250509150506103ea565b80806103a6906111b6565b9150506100ed565b506040517f08c379a00000000000000000000000000000000000000000000000000000000081526004016103e19061125b565b60405180910390fd5b919050565b816000600281111561040457610403610e84565b5b60008083815260200190815260200160002060060160009054906101000a900460ff16600281111561043957610438610e84565b5b14610479576040517f08c379a0000000000000000000000000000000000000000000000000000000008152600401610470906112c7565b60405180910390fd5b81600081116104bd576040517f08c379a00000000000000000000000000000000000000000000000000000000081526004016104b490611359565b60405180910390fd5b6040518060a001604052808681526020013373ffffffffffffffffffffffffffffffffffffffff168152602001600080878152602001908152602001600020600001805461050a90611156565b80601f016020809104026020016040519081016040528092919081815260200182805461053690611156565b80156105835780601f1061055857610100808354040283529160200191610583565b820191906000526020600020905b81548152906001019060200180831161056657829003601f168201915b505050505081526020018481526020014281525060036000600454815260200190815260200160002060008201518160000190816105c19190611525565b5060208201518160010160006101000a81548173ffffffffffffffffffffffffffffffffffffffff021916908373ffffffffffffffffffffffffffffffffffffffff160217905550604082015181600201908161061e9190611525565b50606082015181600301556080820151816004015590505060046000815480929190610649906111b6565b919050555082600080868152602001908152602001600020600401600082825461067391906115f7565b925050819055507f583a8002b061262268e35fd06f3d887a38d262f22b86b458e35c7bc13a23da756000808681526020019081526020016000206040516106ba919061181b565b60405180910390a160008085815260200190815260200160002060050154600080868152602001908152602001600020600401541061077a57600260008086815260200190815260200160002060060160006101000a81548160ff0219169083600281111561072c5761072b610e84565b5b02179055507fc4b7bd9eec3906af2fa90b5ce042dece9d1df599edd963b2580a1090fa7ce810600080868152602001908152602001600020604051610771919061181b565b60405180910390a15b5050505050565b806000600281111561079657610795610e84565b5b60008083815260200190815260200160002060060160009054906101000a900460ff1660028111156107cb576107ca610e84565b5b1461080b576040517f08c379a0000000000000000000000000000000000000000000000000000000008152600401610802906112c7565b60405180910390fd5b600160008084815260200190815260200160002060060160006101000a81548160ff0219169083600281111561084457610843610e84565b5b02179055507fc4b7bd9eec3906af2fa90b5ce042dece9d1df599edd963b2580a1090fa7ce810600080848152602001908152602001600020604051610889919061181b565b60405180910390a15050565b836001816040516108a69190611879565b908152602001604051809103902060009054906101000a900460ff1615610902576040517f08c379a00000000000000000000000000000000000000000000000000000000081526004016108f9906118dc565b60405180910390fd5b6040518060e001604052808681526020018581526020013373ffffffffffffffffffffffffffffffffffffffff1681526020018481526020018481526020018381526020016000600281111561095b5761095a610e84565b5b815250600080600254815260200190815260200160002060008201518160000190816109879190611525565b50602082015181600101908161099d9190611525565b5060408201518160020160006101000a81548173ffffffffffffffffffffffffffffffffffffffff021916908373ffffffffffffffffffffffffffffffffffffffff160217905550606082015181600301556080820151816004015560a0820151816005015560c08201518160060160006101000a81548160ff02191690836002811115610a2e57610a2d610e84565b5b021790555090505060018086604051610a479190611879565b908152602001604051809103902060006101000a81548160ff0219169083151502179055507fc2af6a68c6fdb5f578e7d82609937628ac8b65bea2f8f08f56d410ad844e37f76000806002548152602001908152602001600020604051610aae919061181b565b60405180910390a160026000815480929190610ac9906111b6565b91905055505050505050565b60008151835103610b985760005b8351811015610b8e57828181518110610aff57610afe6118fc565b5b602001015160f81c60f81b7effffffffffffffffffffffffffffffffffffffffffffffffffffffffffffff1916848281518110610b3f57610b3e6118fc565b5b602001015160f81c60f81b7effffffffffffffffffffffffffffffffffffffffffffffffffffffffffffff191614610b7b576000915050610b9d565b8080610b86906111b6565b915050610ae3565b5060019050610b9d565b600090505b92915050565b6040518060e001604052806060815260200160608152602001600073ffffffffffffffffffffffffffffffffffffffff16815260200160008152602001600081526020016000815260200160006002811115610c0257610c01610e84565b5b81525090565b6000604051905090565b600080fd5b600080fd5b600080fd5b600080fd5b6000601f19601f8301169050919050565b7f4e487b7100000000000000000000000000000000000000000000000000000000600052604160045260246000fd5b610c6f82610c26565b810181811067ffffffffffffffff82111715610c8e57610c8d610c37565b5b80604052505050565b6000610ca1610c08565b9050610cad8282610c66565b919050565b600067ffffffffffffffff821115610ccd57610ccc610c37565b5b610cd682610c26565b9050602081019050919050565b82818337600083830152505050565b6000610d05610d0084610cb2565b610c97565b905082815260208101848484011115610d2157610d20610c21565b5b610d2c848285610ce3565b509392505050565b600082601f830112610d4957610d48610c1c565b5b8135610d59848260208601610cf2565b91505092915050565b600060208284031215610d7857610d77610c12565b5b600082013567ffffffffffffffff811115610d9657610d95610c17565b5b610da284828501610d34565b91505092915050565b600081519050919050565b600082825260208201905092915050565b60005b83811015610de5578082015181840152602081019050610dca565b60008484015250505050565b6000610dfc82610dab565b610e068185610db6565b9350610e16818560208601610dc7565b610e1f81610c26565b840191505092915050565b600073ffffffffffffffffffffffffffffffffffffffff82169050919050565b6000610e5582610e2a565b9050919050565b610e6581610e4a565b82525050565b6000819050919050565b610e7e81610e6b565b82525050565b7f4e487b7100000000000000000000000000000000000000000000000000000000600052602160045260246000fd5b60038110610ec457610ec3610e84565b5b50565b6000819050610ed582610eb3565b919050565b6000610ee582610ec7565b9050919050565b610ef581610eda565b82525050565b600060e0830160008301518482036000860152610f188282610df1565b91505060208301518482036020860152610f328282610df1565b9150506040830151610f476040860182610e5c565b506060830151610f5a6060860182610e75565b506080830151610f6d6080860182610e75565b5060a0830151610f8060a0860182610e75565b5060c0830151610f9360c0860182610eec565b508091505092915050565b60006020820190508181036000830152610fb88184610efb565b905092915050565b610fc981610e6b565b8114610fd457600080fd5b50565b600081359050610fe681610fc0565b92915050565b60008060006060848603121561100557611004610c12565b5b600084013567ffffffffffffffff81111561102357611022610c17565b5b61102f86828701610d34565b935050602061104086828701610fd7565b925050604061105186828701610fd7565b9150509250925092565b60006020828403121561107157611070610c12565b5b600061107f84828501610fd7565b91505092915050565b600080600080608085870312156110a2576110a1610c12565b5b600085013567ffffffffffffffff8111156110c0576110bf610c17565b5b6110cc87828801610d34565b945050602085013567ffffffffffffffff8111156110ed576110ec610c17565b5b6110f987828801610d34565b935050604061110a87828801610fd7565b925050606061111b87828801610fd7565b91505092959194509250565b7f4e487b7100000000000000000000000000000000000000000000000000000000600052602260045260246000fd5b6000600282049050600182168061116e57607f821691505b60208210810361118157611180611127565b5b50919050565b7f4e487b7100000000000000000000000000000000000000000000000000000000600052601160045260246000fd5b60006111c182610e6b565b91507fffffffffffffffffffffffffffffffffffffffffffffffffffffffffffffffff82036111f3576111f2611187565b5b600182019050919050565b600082825260208201905092915050565b7f43616d706169676e206e6f7420666f756e642100000000000000000000000000600082015250565b60006112456013836111fe565b91506112508261120f565b602082019050919050565b6000602082019050818103600083015261127481611238565b9050919050565b7f43616d706169676e206973206e6f7420617661696c61626c6521000000000000600082015250565b60006112b1601a836111fe565b91506112bc8261127b565b602082019050919050565b600060208201905081810360008301526112e0816112a4565b9050919050565b7f416d6f756e742073686f756c642062652067726561746572207468616e207a6560008201527f726f000000000000000000000000000000000000000000000000000000000000602082015250565b60006113436022836111fe565b915061134e826112e7565b604082019050919050565b6000602082019050818103600083015261137281611336565b9050919050565b60008190508160005260206000209050919050565b60006020601f8301049050919050565b600082821b905092915050565b6000600883026113db7fffffffffffffffffffffffffffffffffffffffffffffffffffffffffffffffff8261139e565b6113e5868361139e565b95508019841693508086168417925050509392505050565b6000819050919050565b600061142261141d61141884610e6b565b6113fd565b610e6b565b9050919050565b6000819050919050565b61143c83611407565b61145061144882611429565b8484546113ab565b825550505050565b600090565b611465611458565b611470818484611433565b505050565b5b818110156114945761148960008261145d565b600181019050611476565b5050565b601f8211156114d9576114aa81611379565b6114b38461138e565b810160208510156114c2578190505b6114d66114ce8561138e565b830182611475565b50505b505050565b600082821c905092915050565b60006114fc600019846008026114de565b1980831691505092915050565b600061151583836114eb565b9150826002028217905092915050565b61152e82610dab565b67ffffffffffffffff81111561154757611546610c37565b5b6115518254611156565b61155c828285611498565b600060209050601f83116001811461158f576000841561157d578287015190505b6115878582611509565b8655506115ef565b601f19841661159d86611379565b60005b828110156115c5578489015182556001820191506020850194506020810190506115a0565b868310156115e257848901516115de601f8916826114eb565b8355505b6001600288020188555050505b505050505050565b600061160282610e6b565b915061160d83610e6b565b925082820190508082111561162557611624611187565b5b92915050565b6000815461163881611156565b6116428186610db6565b9450600182166000811461165d5760018114611673576116a6565b60ff1983168652811515602002860193506116a6565b61167c85611379565b60005b8381101561169e5781548189015260018201915060208101905061167f565b808801955050505b50505092915050565b60008160001c9050919050565b600073ffffffffffffffffffffffffffffffffffffffff82169050919050565b60006116ef6116ea836116af565b6116bc565b9050919050565b6000819050919050565b600061171361170e836116af565b6116f6565b9050919050565b600060ff82169050919050565b600061173a611735836116af565b61171a565b9050919050565b600060e083016000808401858303600087015261175e838261162b565b925050600184018583036020870152611777838261162b565b9250506002840154905061178a816116dc565b6117976040870182610e5c565b50600384015490506117a881611700565b6117b56060870182610e75565b50600484015490506117c681611700565b6117d36080870182610e75565b50600584015490506117e481611700565b6117f160a0870182610e75565b506006840154905061180281611727565b61180f60c0870182610eec565b50819250505092915050565b600060208201905081810360008301526118358184611741565b905092915050565b600081905092915050565b600061185382610dab565b61185d818561183d565b935061186d818560208601610dc7565b80840191505092915050565b60006118858284611848565b915081905092915050565b7f43616d706169676e20616c726561647920657869737473210000000000000000600082015250565b60006118c66018836111fe565b91506118d182611890565b602082019050919050565b600060208201905081810360008301526118f5816118b9565b9050919050565b7f4e487b7100000000000000000000000000000000000000000000000000000000600052603260045260246000fdfea264697066735822122064e156d5907a45fd32361b8c8f43292b4a75c3e213ef4194317c1ccf1c926ec664736f6c63430008130033",
  "linkReferences": {},
  "deployedLinkReferences": {}
}