{
  "_format": "hh-sol-artifact-1",
  "contractName": "campaign",
  "sourceName": "contracts/campaign.sol",
  "abi": [
    {
      "inputs": [],
      "stateMutability": "nonpayable",
      "type": "constructor"
    },
    {
      "anonymous": false,
      "inputs": [
        {
          "components": [
            {
              "internalType": "string",
              "name": "title",
              "type": "string"
            },
            {
              "internalType": "string",
              "name": "description",
              "type": "string"
            },
            {
              "internalType": "address",
              "name": "caddress",
              "type": "address"
            },
            {
              "internalType": "uint256",
              "name": "initialAmount",
              "type": "uint256"
            },
            {
              "internalType": "uint256",
              "name": "currentAmount",
              "type": "uint256"
            },
            {
              "internalType": "uint256",
              "name": "requiredAmount",
              "type": "uint256"
            },
            {
              "internalType": "enum campaign.status",
              "name": "campaignStatus",
              "type": "uint8"
            }
          ],
          "indexed": false,
          "internalType": "struct campaign.campaignDetail",
          "name": "campaign",
          "type": "tuple"
        }
      ],
      "name": "campaignCreated",
      "type": "event"
    },
    {
      "inputs": [
        {
          "internalType": "string",
          "name": "_camp",
          "type": "string"
        }
      ],
      "name": "checkCampaigns",
      "outputs": [
        {
          "components": [
            {
              "internalType": "string",
              "name": "title",
              "type": "string"
            },
            {
              "internalType": "string",
              "name": "description",
              "type": "string"
            },
            {
              "internalType": "address",
              "name": "caddress",
              "type": "address"
            },
            {
              "internalType": "uint256",
              "name": "initialAmount",
              "type": "uint256"
            },
            {
              "internalType": "uint256",
              "name": "currentAmount",
              "type": "uint256"
            },
            {
              "internalType": "uint256",
              "name": "requiredAmount",
              "type": "uint256"
            },
            {
              "internalType": "enum campaign.status",
              "name": "campaignStatus",
              "type": "uint8"
            }
          ],
          "internalType": "struct campaign.campaignDetail",
          "name": "",
          "type": "tuple"
        }
      ],
      "stateMutability": "view",
      "type": "function"
    },
    {
      "inputs": [
        {
          "internalType": "string",
          "name": "_camp",
          "type": "string"
        },
        {
          "internalType": "string",
          "name": "_description",
          "type": "string"
        },
        {
          "internalType": "uint256",
          "name": "_initialAmount",
          "type": "uint256"
        },
        {
          "internalType": "uint256",
          "name": "_requiredAmount",
          "type": "uint256"
        }
      ],
      "name": "createCampaign",
      "outputs": [],
      "stateMutability": "payable",
      "type": "function"
    }
  ],
  "bytecode": "0x608060405234801561001057600080fd5b506001600281905550611292806100286000396000f3fe6080604052600436106100295760003560e01c8063298b327c1461002e578063a318f2691461006b575b600080fd5b34801561003a57600080fd5b5061005560048036038101906100509190610861565b610087565b6040516100629190610a9d565b60405180910390f35b61008560048036038101906100809190610aeb565b610394565b005b61008f6106a2565b60005b6002548110156103535761014360008083815260200190815260200160002060000180546100bf90610bb9565b80601f01602080910402602001604051908101604052809291908181526020018280546100eb90610bb9565b80156101385780601f1061010d57610100808354040283529160200191610138565b820191906000526020600020905b81548152906001019060200180831161011b57829003601f168201915b5050505050846105d4565b15610340576000808281526020019081526020016000206040518060e001604052908160008201805461017590610bb9565b80601f01602080910402602001604051908101604052809291908181526020018280546101a190610bb9565b80156101ee5780601f106101c3576101008083540402835291602001916101ee565b820191906000526020600020905b8154815290600101906020018083116101d157829003601f168201915b5050505050815260200160018201805461020790610bb9565b80601f016020809104026020016040519081016040528092919081815260200182805461023390610bb9565b80156102805780601f1061025557610100808354040283529160200191610280565b820191906000526020600020905b81548152906001019060200180831161026357829003601f168201915b505050505081526020016002820160009054906101000a900473ffffffffffffffffffffffffffffffffffffffff1673ffffffffffffffffffffffffffffffffffffffff1673ffffffffffffffffffffffffffffffffffffffff1681526020016003820154815260200160048201548152602001600582015481526020016006820160009054906101000a900460ff16600281111561032257610321610983565b5b600281111561033457610333610983565b5b8152505091505061038f565b808061034b90610c19565b915050610092565b506040517f08c379a000000000000000000000000000000000000000000000000000000000815260040161038690610cbe565b60405180910390fd5b919050565b836001816040516103a59190610d1a565b908152602001604051809103902060009054906101000a900460ff1615610401576040517f08c379a00000000000000000000000000000000000000000000000000000000081526004016103f890610d7d565b60405180910390fd5b6040518060e001604052808681526020018581526020013373ffffffffffffffffffffffffffffffffffffffff1681526020018481526020018481526020018381526020016000600281111561045a57610459610983565b5b815250600080600254815260200190815260200160002060008201518160000190816104869190610f49565b50602082015181600101908161049c9190610f49565b5060408201518160020160006101000a81548173ffffffffffffffffffffffffffffffffffffffff021916908373ffffffffffffffffffffffffffffffffffffffff160217905550606082015181600301556080820151816004015560a0820151816005015560c08201518160060160006101000a81548160ff0219169083600281111561052d5761052c610983565b5b0217905550905050600180866040516105469190610d1a565b908152602001604051809103902060006101000a81548160ff0219169083151502179055507fc2af6a68c6fdb5f578e7d82609937628ac8b65bea2f8f08f56d410ad844e37f760008060025481526020019081526020016000206040516105ad919061120b565b60405180910390a1600260008154809291906105c890610c19565b91905055505050505050565b600081518351036106975760005b835181101561068d578281815181106105fe576105fd61122d565b5b602001015160f81c60f81b7effffffffffffffffffffffffffffffffffffffffffffffffffffffffffffff191684828151811061063e5761063d61122d565b5b602001015160f81c60f81b7effffffffffffffffffffffffffffffffffffffffffffffffffffffffffffff19161461067a57600091505061069c565b808061068590610c19565b9150506105e2565b506001905061069c565b600090505b92915050565b6040518060e001604052806060815260200160608152602001600073ffffffffffffffffffffffffffffffffffffffff1681526020016000815260200160008152602001600081526020016000600281111561070157610700610983565b5b81525090565b6000604051905090565b600080fd5b600080fd5b600080fd5b600080fd5b6000601f19601f8301169050919050565b7f4e487b7100000000000000000000000000000000000000000000000000000000600052604160045260246000fd5b61076e82610725565b810181811067ffffffffffffffff8211171561078d5761078c610736565b5b80604052505050565b60006107a0610707565b90506107ac8282610765565b919050565b600067ffffffffffffffff8211156107cc576107cb610736565b5b6107d582610725565b9050602081019050919050565b82818337600083830152505050565b60006108046107ff846107b1565b610796565b9050828152602081018484840111156108205761081f610720565b5b61082b8482856107e2565b509392505050565b600082601f8301126108485761084761071b565b5b81356108588482602086016107f1565b91505092915050565b60006020828403121561087757610876610711565b5b600082013567ffffffffffffffff81111561089557610894610716565b5b6108a184828501610833565b91505092915050565b600081519050919050565b600082825260208201905092915050565b60005b838110156108e45780820151818401526020810190506108c9565b60008484015250505050565b60006108fb826108aa565b61090581856108b5565b93506109158185602086016108c6565b61091e81610725565b840191505092915050565b600073ffffffffffffffffffffffffffffffffffffffff82169050919050565b600061095482610929565b9050919050565b61096481610949565b82525050565b6000819050919050565b61097d8161096a565b82525050565b7f4e487b7100000000000000000000000000000000000000000000000000000000600052602160045260246000fd5b600381106109c3576109c2610983565b5b50565b60008190506109d4826109b2565b919050565b60006109e4826109c6565b9050919050565b6109f4816109d9565b82525050565b600060e0830160008301518482036000860152610a1782826108f0565b91505060208301518482036020860152610a3182826108f0565b9150506040830151610a46604086018261095b565b506060830151610a596060860182610974565b506080830151610a6c6080860182610974565b5060a0830151610a7f60a0860182610974565b5060c0830151610a9260c08601826109eb565b508091505092915050565b60006020820190508181036000830152610ab781846109fa565b905092915050565b610ac88161096a565b8114610ad357600080fd5b50565b600081359050610ae581610abf565b92915050565b60008060008060808587031215610b0557610b04610711565b5b600085013567ffffffffffffffff811115610b2357610b22610716565b5b610b2f87828801610833565b945050602085013567ffffffffffffffff811115610b5057610b4f610716565b5b610b5c87828801610833565b9350506040610b6d87828801610ad6565b9250506060610b7e87828801610ad6565b91505092959194509250565b7f4e487b7100000000000000000000000000000000000000000000000000000000600052602260045260246000fd5b60006002820490506001821680610bd157607f821691505b602082108103610be457610be3610b8a565b5b50919050565b7f4e487b7100000000000000000000000000000000000000000000000000000000600052601160045260246000fd5b6000610c248261096a565b91507fffffffffffffffffffffffffffffffffffffffffffffffffffffffffffffffff8203610c5657610c55610bea565b5b600182019050919050565b600082825260208201905092915050565b7f43616d706169676e206e6f7420666f756e642100000000000000000000000000600082015250565b6000610ca8601383610c61565b9150610cb382610c72565b602082019050919050565b60006020820190508181036000830152610cd781610c9b565b9050919050565b600081905092915050565b6000610cf4826108aa565b610cfe8185610cde565b9350610d0e8185602086016108c6565b80840191505092915050565b6000610d268284610ce9565b915081905092915050565b7f43616d706169676e20616c726561647920657869737473210000000000000000600082015250565b6000610d67601883610c61565b9150610d7282610d31565b602082019050919050565b60006020820190508181036000830152610d9681610d5a565b9050919050565b60008190508160005260206000209050919050565b60006020601f8301049050919050565b600082821b905092915050565b600060088302610dff7fffffffffffffffffffffffffffffffffffffffffffffffffffffffffffffffff82610dc2565b610e098683610dc2565b95508019841693508086168417925050509392505050565b6000819050919050565b6000610e46610e41610e3c8461096a565b610e21565b61096a565b9050919050565b6000819050919050565b610e6083610e2b565b610e74610e6c82610e4d565b848454610dcf565b825550505050565b600090565b610e89610e7c565b610e94818484610e57565b505050565b5b81811015610eb857610ead600082610e81565b600181019050610e9a565b5050565b601f821115610efd57610ece81610d9d565b610ed784610db2565b81016020851015610ee6578190505b610efa610ef285610db2565b830182610e99565b50505b505050565b600082821c905092915050565b6000610f2060001984600802610f02565b1980831691505092915050565b6000610f398383610f0f565b9150826002028217905092915050565b610f52826108aa565b67ffffffffffffffff811115610f6b57610f6a610736565b5b610f758254610bb9565b610f80828285610ebc565b600060209050601f831160018114610fb35760008415610fa1578287015190505b610fab8582610f2d565b865550611013565b601f198416610fc186610d9d565b60005b82811015610fe957848901518255600182019150602085019450602081019050610fc4565b868310156110065784890151611002601f891682610f0f565b8355505b6001600288020188555050505b505050505050565b6000815461102881610bb9565b61103281866108b5565b9450600182166000811461104d576001811461106357611096565b60ff198316865281151560200286019350611096565b61106c85610d9d565b60005b8381101561108e5781548189015260018201915060208101905061106f565b808801955050505b50505092915050565b60008160001c9050919050565b600073ffffffffffffffffffffffffffffffffffffffff82169050919050565b60006110df6110da8361109f565b6110ac565b9050919050565b6000819050919050565b60006111036110fe8361109f565b6110e6565b9050919050565b600060ff82169050919050565b600061112a6111258361109f565b61110a565b9050919050565b600060e083016000808401858303600087015261114e838261101b565b925050600184018583036020870152611167838261101b565b9250506002840154905061117a816110cc565b611187604087018261095b565b5060038401549050611198816110f0565b6111a56060870182610974565b50600484015490506111b6816110f0565b6111c36080870182610974565b50600584015490506111d4816110f0565b6111e160a0870182610974565b50600684015490506111f281611117565b6111ff60c08701826109eb565b50819250505092915050565b600060208201905081810360008301526112258184611131565b905092915050565b7f4e487b7100000000000000000000000000000000000000000000000000000000600052603260045260246000fdfea2646970667358221220c75d4d88328d5213670792c0cbc88f2da02af46ae373093257f498ebd11e967864736f6c63430008130033",
  "linkReferences": {},
  "deployedLinkReferences": {}
}